{
  "contractName": "MarketingNFT",
  "abi": [
    {
      "inputs": [
        {
          "internalType": "string",
          "name": "name",
          "type": "string"
        },
        {
          "internalType": "string",
          "name": "symbol",
          "type": "string"
        },
        {
          "internalType": "string",
          "name": "baseURI",
          "type": "string"
        }
      ],
      "stateMutability": "nonpayable",
      "type": "constructor"
    },
    {
      "anonymous": false,
      "inputs": [
        {
          "indexed": true,
          "internalType": "address",
          "name": "owner",
          "type": "address"
        },
        {
          "indexed": true,
          "internalType": "address",
          "name": "approved",
          "type": "address"
        },
        {
          "indexed": true,
          "internalType": "uint256",
          "name": "tokenId",
          "type": "uint256"
        }
      ],
      "name": "Approval",
      "type": "event"
    },
    {
      "anonymous": false,
      "inputs": [
        {
          "indexed": true,
          "internalType": "address",
          "name": "owner",
          "type": "address"
        },
        {
          "indexed": true,
          "internalType": "address",
          "name": "operator",
          "type": "address"
        },
        {
          "indexed": false,
          "internalType": "bool",
          "name": "approved",
          "type": "bool"
        }
      ],
      "name": "ApprovalForAll",
      "type": "event"
    },
    {
      "anonymous": false,
      "inputs": [
        {
          "indexed": true,
          "internalType": "bytes32",
          "name": "role",
          "type": "bytes32"
        },
        {
          "indexed": true,
          "internalType": "bytes32",
          "name": "previousAdminRole",
          "type": "bytes32"
        },
        {
          "indexed": true,
          "internalType": "bytes32",
          "name": "newAdminRole",
          "type": "bytes32"
        }
      ],
      "name": "RoleAdminChanged",
      "type": "event"
    },
    {
      "anonymous": false,
      "inputs": [
        {
          "indexed": true,
          "internalType": "bytes32",
          "name": "role",
          "type": "bytes32"
        },
        {
          "indexed": true,
          "internalType": "address",
          "name": "account",
          "type": "address"
        },
        {
          "indexed": true,
          "internalType": "address",
          "name": "sender",
          "type": "address"
        }
      ],
      "name": "RoleGranted",
      "type": "event"
    },
    {
      "anonymous": false,
      "inputs": [
        {
          "indexed": true,
          "internalType": "bytes32",
          "name": "role",
          "type": "bytes32"
        },
        {
          "indexed": true,
          "internalType": "address",
          "name": "account",
          "type": "address"
        },
        {
          "indexed": true,
          "internalType": "address",
          "name": "sender",
          "type": "address"
        }
      ],
      "name": "RoleRevoked",
      "type": "event"
    },
    {
      "anonymous": false,
      "inputs": [
        {
          "indexed": true,
          "internalType": "address",
          "name": "from",
          "type": "address"
        },
        {
          "indexed": true,
          "internalType": "address",
          "name": "to",
          "type": "address"
        },
        {
          "indexed": true,
          "internalType": "uint256",
          "name": "tokenId",
          "type": "uint256"
        }
      ],
      "name": "Transfer",
      "type": "event"
    },
    {
      "inputs": [],
      "name": "DEFAULT_ADMIN_ROLE",
      "outputs": [
        {
          "internalType": "bytes32",
          "name": "",
          "type": "bytes32"
        }
      ],
      "stateMutability": "view",
      "type": "function",
      "constant": true
    },
    {
      "inputs": [],
      "name": "MANAGER_ROLE",
      "outputs": [
        {
          "internalType": "bytes32",
          "name": "",
          "type": "bytes32"
        }
      ],
      "stateMutability": "view",
      "type": "function",
      "constant": true
    },
    {
      "inputs": [],
      "name": "MINTER_ROLE",
      "outputs": [
        {
          "internalType": "bytes32",
          "name": "",
          "type": "bytes32"
        }
      ],
      "stateMutability": "view",
      "type": "function",
      "constant": true
    },
    {
      "inputs": [
        {
          "internalType": "address",
          "name": "to",
          "type": "address"
        },
        {
          "internalType": "uint256",
          "name": "tokenId",
          "type": "uint256"
        }
      ],
      "name": "approve",
      "outputs": [],
      "stateMutability": "nonpayable",
      "type": "function"
    },
    {
      "inputs": [
        {
          "internalType": "address",
          "name": "owner",
          "type": "address"
        }
      ],
      "name": "balanceOf",
      "outputs": [
        {
          "internalType": "uint256",
          "name": "",
          "type": "uint256"
        }
      ],
      "stateMutability": "view",
      "type": "function",
      "constant": true
    },
    {
      "inputs": [
        {
          "internalType": "uint256",
          "name": "tokenId",
          "type": "uint256"
        }
      ],
      "name": "burn",
      "outputs": [],
      "stateMutability": "nonpayable",
      "type": "function"
    },
    {
      "inputs": [
        {
          "internalType": "uint256",
          "name": "tokenId",
          "type": "uint256"
        }
      ],
      "name": "getApproved",
      "outputs": [
        {
          "internalType": "address",
          "name": "",
          "type": "address"
        }
      ],
      "stateMutability": "view",
      "type": "function",
      "constant": true
    },
    {
      "inputs": [
        {
          "internalType": "bytes32",
          "name": "role",
          "type": "bytes32"
        }
      ],
      "name": "getRoleAdmin",
      "outputs": [
        {
          "internalType": "bytes32",
          "name": "",
          "type": "bytes32"
        }
      ],
      "stateMutability": "view",
      "type": "function",
      "constant": true
    },
    {
      "inputs": [
        {
          "internalType": "bytes32",
          "name": "role",
          "type": "bytes32"
        },
        {
          "internalType": "uint256",
          "name": "index",
          "type": "uint256"
        }
      ],
      "name": "getRoleMember",
      "outputs": [
        {
          "internalType": "address",
          "name": "",
          "type": "address"
        }
      ],
      "stateMutability": "view",
      "type": "function",
      "constant": true
    },
    {
      "inputs": [
        {
          "internalType": "bytes32",
          "name": "role",
          "type": "bytes32"
        }
      ],
      "name": "getRoleMemberCount",
      "outputs": [
        {
          "internalType": "uint256",
          "name": "",
          "type": "uint256"
        }
      ],
      "stateMutability": "view",
      "type": "function",
      "constant": true
    },
    {
      "inputs": [
        {
          "internalType": "bytes32",
          "name": "role",
          "type": "bytes32"
        },
        {
          "internalType": "address",
          "name": "account",
          "type": "address"
        }
      ],
      "name": "grantRole",
      "outputs": [],
      "stateMutability": "nonpayable",
      "type": "function"
    },
    {
      "inputs": [
        {
          "internalType": "bytes32",
          "name": "role",
          "type": "bytes32"
        },
        {
          "internalType": "address",
          "name": "account",
          "type": "address"
        }
      ],
      "name": "hasRole",
      "outputs": [
        {
          "internalType": "bool",
          "name": "",
          "type": "bool"
        }
      ],
      "stateMutability": "view",
      "type": "function",
      "constant": true
    },
    {
      "inputs": [
        {
          "internalType": "uint256",
          "name": "",
          "type": "uint256"
        }
      ],
      "name": "infoOf",
      "outputs": [
        {
          "internalType": "uint256",
          "name": "categoryId",
          "type": "uint256"
        }
      ],
      "stateMutability": "view",
      "type": "function",
      "constant": true
    },
    {
      "inputs": [
        {
          "internalType": "address",
          "name": "owner",
          "type": "address"
        },
        {
          "internalType": "address",
          "name": "operator",
          "type": "address"
        }
      ],
      "name": "isApprovedForAll",
      "outputs": [
        {
          "internalType": "bool",
          "name": "",
          "type": "bool"
        }
      ],
      "stateMutability": "view",
      "type": "function",
      "constant": true
    },
    {
      "inputs": [],
      "name": "name",
      "outputs": [
        {
          "internalType": "string",
          "name": "",
          "type": "string"
        }
      ],
      "stateMutability": "view",
      "type": "function",
      "constant": true
    },
    {
      "inputs": [
        {
          "internalType": "uint256",
          "name": "tokenId",
          "type": "uint256"
        }
      ],
      "name": "ownerOf",
      "outputs": [
        {
          "internalType": "address",
          "name": "",
          "type": "address"
        }
      ],
      "stateMutability": "view",
      "type": "function",
      "constant": true
    },
    {
      "inputs": [
        {
          "internalType": "bytes32",
          "name": "role",
          "type": "bytes32"
        },
        {
          "internalType": "address",
          "name": "account",
          "type": "address"
        }
      ],
      "name": "renounceRole",
      "outputs": [],
      "stateMutability": "nonpayable",
      "type": "function"
    },
    {
      "inputs": [
        {
          "internalType": "bytes32",
          "name": "role",
          "type": "bytes32"
        },
        {
          "internalType": "address",
          "name": "account",
          "type": "address"
        }
      ],
      "name": "revokeRole",
      "outputs": [],
      "stateMutability": "nonpayable",
      "type": "function"
    },
    {
      "inputs": [
        {
          "internalType": "address",
          "name": "from",
          "type": "address"
        },
        {
          "internalType": "address",
          "name": "to",
          "type": "address"
        },
        {
          "internalType": "uint256",
          "name": "tokenId",
          "type": "uint256"
        }
      ],
      "name": "safeTransferFrom",
      "outputs": [],
      "stateMutability": "nonpayable",
      "type": "function"
    },
    {
      "inputs": [
        {
          "internalType": "address",
          "name": "from",
          "type": "address"
        },
        {
          "internalType": "address",
          "name": "to",
          "type": "address"
        },
        {
          "internalType": "uint256",
          "name": "tokenId",
          "type": "uint256"
        },
        {
          "internalType": "bytes",
          "name": "_data",
          "type": "bytes"
        }
      ],
      "name": "safeTransferFrom",
      "outputs": [],
      "stateMutability": "nonpayable",
      "type": "function"
    },
    {
      "inputs": [
        {
          "internalType": "address",
          "name": "operator",
          "type": "address"
        },
        {
          "internalType": "bool",
          "name": "approved",
          "type": "bool"
        }
      ],
      "name": "setApprovalForAll",
      "outputs": [],
      "stateMutability": "nonpayable",
      "type": "function"
    },
    {
      "inputs": [],
      "name": "symbol",
      "outputs": [
        {
          "internalType": "string",
          "name": "",
          "type": "string"
        }
      ],
      "stateMutability": "view",
      "type": "function",
      "constant": true
    },
    {
      "inputs": [
        {
          "internalType": "uint256",
          "name": "index",
          "type": "uint256"
        }
      ],
      "name": "tokenByIndex",
      "outputs": [
        {
          "internalType": "uint256",
          "name": "",
          "type": "uint256"
        }
      ],
      "stateMutability": "view",
      "type": "function",
      "constant": true
    },
    {
      "inputs": [
        {
          "internalType": "address",
          "name": "owner",
          "type": "address"
        },
        {
          "internalType": "uint256",
          "name": "index",
          "type": "uint256"
        }
      ],
      "name": "tokenOfOwnerByIndex",
      "outputs": [
        {
          "internalType": "uint256",
          "name": "",
          "type": "uint256"
        }
      ],
      "stateMutability": "view",
      "type": "function",
      "constant": true
    },
    {
      "inputs": [
        {
          "internalType": "uint256",
          "name": "tokenId",
          "type": "uint256"
        }
      ],
      "name": "tokenURI",
      "outputs": [
        {
          "internalType": "string",
          "name": "",
          "type": "string"
        }
      ],
      "stateMutability": "view",
      "type": "function",
      "constant": true
    },
    {
      "inputs": [],
      "name": "totalSupply",
      "outputs": [
        {
          "internalType": "uint256",
          "name": "",
          "type": "uint256"
        }
      ],
      "stateMutability": "view",
      "type": "function",
      "constant": true
    },
    {
      "inputs": [
        {
          "internalType": "address",
          "name": "from",
          "type": "address"
        },
        {
          "internalType": "address",
          "name": "to",
          "type": "address"
        },
        {
          "internalType": "uint256",
          "name": "tokenId",
          "type": "uint256"
        }
      ],
      "name": "transferFrom",
      "outputs": [],
      "stateMutability": "nonpayable",
      "type": "function"
    },
    {
      "inputs": [
        {
          "internalType": "string",
          "name": "value",
          "type": "string"
        }
      ],
      "name": "setBaseURI",
      "outputs": [],
      "stateMutability": "nonpayable",
      "type": "function"
    },
    {
      "inputs": [
        {
          "internalType": "bytes4",
          "name": "interfaceId",
          "type": "bytes4"
        }
      ],
      "name": "supportsInterface",
      "outputs": [
        {
          "internalType": "bool",
          "name": "",
          "type": "bool"
        }
      ],
      "stateMutability": "view",
      "type": "function",
      "constant": true
    },
    {
      "inputs": [
        {
          "internalType": "address",
          "name": "to",
          "type": "address"
        },
        {
          "components": [
            {
              "internalType": "uint256",
              "name": "categoryId",
              "type": "uint256"
            }
          ],
          "internalType": "struct MarketingNFT.NFTInfo",
          "name": "info",
          "type": "tuple"
        }
      ],
      "name": "mint",
      "outputs": [
        {
          "internalType": "uint256",
          "name": "nftId",
          "type": "uint256"
        }
      ],
      "stateMutability": "nonpayable",
      "type": "function"
    }
  ],
  "bytecode": "0x60806040523480156200001157600080fd5b5060405162004c6238038062004c628339818101604052810190620000379190620005eb565b82828160029080519060200190620000519291906200039e565b5080600390805190602001906200006a9291906200039e565b50505080600c9080519060200190620000859291906200039e565b506200009b6000801b336200010860201b60201c565b620000cd7f241ecf16d79d0f8dbfb92cbc07fe17840425976cf0667f022fe9877caa831b08336200010860201b60201c565b620000ff7f9f2df0fed2c77648de5860a4cc508cd0818c85b8b8a1ab4ceeef8d981c8956a6336200010860201b60201c565b50505062000709565b6200011a82826200011e60201b60201c565b5050565b6200013582826200016660201b6200111f1760201c565b6200016181600160008581526020019081526020016000206200025760201b620011ff1790919060201c565b505050565b6200017882826200028f60201b60201c565b6200025357600160008084815260200190815260200160002060000160008373ffffffffffffffffffffffffffffffffffffffff1673ffffffffffffffffffffffffffffffffffffffff16815260200190815260200160002060006101000a81548160ff021916908315150217905550620001f8620002f960201b60201c565b73ffffffffffffffffffffffffffffffffffffffff168173ffffffffffffffffffffffffffffffffffffffff16837f2f8788117e7eff1d82e926ec794901d17c78024a50270940304540a733656f0d60405160405180910390a45b5050565b600062000287836000018373ffffffffffffffffffffffffffffffffffffffff1660001b6200030160201b60201c565b905092915050565b600080600084815260200190815260200160002060000160008373ffffffffffffffffffffffffffffffffffffffff1673ffffffffffffffffffffffffffffffffffffffff16815260200190815260200160002060009054906101000a900460ff16905092915050565b600033905090565b60006200031583836200037b60201b60201c565b6200037057826000018290806001815401808255809150506001900390600052602060002001600090919091909150558260000180549050836001016000848152602001908152602001600020819055506001905062000375565b600090505b92915050565b600080836001016000848152602001908152602001600020541415905092915050565b828054620003ac90620006d3565b90600052602060002090601f016020900481019282620003d057600085556200041c565b82601f10620003eb57805160ff19168380011785556200041c565b828001600101855582156200041c579182015b828111156200041b578251825591602001919060010190620003fe565b5b5090506200042b91906200042f565b5090565b5b808211156200044a57600081600090555060010162000430565b5090565b6000604051905090565b600080fd5b600080fd5b600080fd5b600080fd5b6000601f19601f8301169050919050565b7f4e487b7100000000000000000000000000000000000000000000000000000000600052604160045260246000fd5b620004b7826200046c565b810181811067ffffffffffffffff82111715620004d957620004d86200047d565b5b80604052505050565b6000620004ee6200044e565b9050620004fc8282620004ac565b919050565b600067ffffffffffffffff8211156200051f576200051e6200047d565b5b6200052a826200046c565b9050602081019050919050565b60005b83811015620005575780820151818401526020810190506200053a565b8381111562000567576000848401525b50505050565b6000620005846200057e8462000501565b620004e2565b905082815260208101848484011115620005a357620005a262000467565b5b620005b084828562000537565b509392505050565b600082601f830112620005d057620005cf62000462565b5b8151620005e28482602086016200056d565b91505092915050565b60008060006060848603121562000607576200060662000458565b5b600084015167ffffffffffffffff8111156200062857620006276200045d565b5b6200063686828701620005b8565b935050602084015167ffffffffffffffff8111156200065a57620006596200045d565b5b6200066886828701620005b8565b925050604084015167ffffffffffffffff8111156200068c576200068b6200045d565b5b6200069a86828701620005b8565b9150509250925092565b7f4e487b7100000000000000000000000000000000000000000000000000000000600052602260045260246000fd5b60006002820490506001821680620006ec57607f821691505b60208210811415620007035762000702620006a4565b5b50919050565b61454980620007196000396000f3fe608060405234801561001057600080fd5b50600436106101da5760003560e01c806370a0823111610104578063b88d4fde116100a2578063d547741f11610071578063d547741f146105b1578063e985e9c5146105cd578063ec87621c146105fd578063f71e09531461061b576101da565b8063b88d4fde14610517578063c87b56dd14610533578063ca15c87314610563578063d539139314610593576101da565b806391d14854116100de57806391d148541461048f57806395d89b41146104bf578063a217fddf146104dd578063a22cb465146104fb576101da565b806370a08231146103ff57806378b38f361461042f5780639010d07c1461045f576101da565b80632f2ff15d1161017c57806342966c681161014b57806342966c68146103675780634f6ccce71461038357806355f804b3146103b35780636352211e146103cf576101da565b80632f2ff15d146102e35780632f745c59146102ff57806336568abe1461032f57806342842e0e1461034b576101da565b8063095ea7b3116101b8578063095ea7b31461025d57806318160ddd1461027957806323b872dd14610297578063248a9ca3146102b3576101da565b806301ffc9a7146101df57806306fdde031461020f578063081812fc1461022d575b600080fd5b6101f960048036038101906101f49190612d84565b61064b565b6040516102069190612dcc565b60405180910390f35b61021761065d565b6040516102249190612e80565b60405180910390f35b61024760048036038101906102429190612ed8565b6106ef565b6040516102549190612f46565b60405180910390f35b61027760048036038101906102729190612f8d565b610774565b005b61028161088c565b60405161028e9190612fdc565b60405180910390f35b6102b160048036038101906102ac9190612ff7565b610899565b005b6102cd60048036038101906102c89190613080565b6108f9565b6040516102da91906130bc565b60405180910390f35b6102fd60048036038101906102f891906130d7565b610918565b005b61031960048036038101906103149190612f8d565b610941565b6040516103269190612fdc565b60405180910390f35b610349600480360381019061034491906130d7565b6109e6565b005b61036560048036038101906103609190612ff7565b610a69565b005b610381600480360381019061037c9190612ed8565b610a89565b005b61039d60048036038101906103989190612ed8565b610ae5565b6040516103aa9190612fdc565b60405180910390f35b6103cd60048036038101906103c8919061317c565b610b56565b005b6103e960048036038101906103e49190612ed8565b610b9f565b6040516103f69190612f46565b60405180910390f35b610419600480360381019061041491906131c9565b610c51565b6040516104269190612fdc565b60405180910390f35b61044960048036038101906104449190612ed8565b610d09565b6040516104569190612fdc565b60405180910390f35b610479600480360381019061047491906131f6565b610d27565b6040516104869190612f46565b60405180910390f35b6104a960048036038101906104a491906130d7565b610d56565b6040516104b69190612dcc565b60405180910390f35b6104c7610dc0565b6040516104d49190612e80565b60405180910390f35b6104e5610e52565b6040516104f291906130bc565b60405180910390f35b61051560048036038101906105109190613262565b610e59565b005b610531600480360381019061052c91906133d2565b610e6f565b005b61054d60048036038101906105489190612ed8565b610ed1565b60405161055a9190612e80565b60405180910390f35b61057d60048036038101906105789190613080565b610f78565b60405161058a9190612fdc565b60405180910390f35b61059b610f9c565b6040516105a891906130bc565b60405180910390f35b6105cb60048036038101906105c691906130d7565b610fc0565b005b6105e760048036038101906105e29190613455565b610fe9565b6040516105f49190612dcc565b60405180910390f35b61060561107d565b60405161061291906130bc565b60405180910390f35b610635600480360381019061063091906134b9565b6110a1565b6040516106429190612fdc565b60405180910390f35b60006106568261122f565b9050919050565b60606002805461066c90613528565b80601f016020809104026020016040519081016040528092919081815260200182805461069890613528565b80156106e55780601f106106ba576101008083540402835291602001916106e5565b820191906000526020600020905b8154815290600101906020018083116106c857829003601f168201915b5050505050905090565b60006106fa826112a9565b610739576040517f08c379a0000000000000000000000000000000000000000000000000000000008152600401610730906135cc565b60405180910390fd5b6006600083815260200190815260200160002060009054906101000a900473ffffffffffffffffffffffffffffffffffffffff169050919050565b600061077f82610b9f565b90508073ffffffffffffffffffffffffffffffffffffffff168373ffffffffffffffffffffffffffffffffffffffff1614156107f0576040517f08c379a00000000000000000000000000000000000000000000000000000000081526004016107e79061365e565b60405180910390fd5b8073ffffffffffffffffffffffffffffffffffffffff1661080f611315565b73ffffffffffffffffffffffffffffffffffffffff16148061083e575061083d81610838611315565b610fe9565b5b61087d576040517f08c379a0000000000000000000000000000000000000000000000000000000008152600401610874906136f0565b60405180910390fd5b610887838361131d565b505050565b6000600a80549050905090565b6108aa6108a4611315565b826113d6565b6108e9576040517f08c379a00000000000000000000000000000000000000000000000000000000081526004016108e090613782565b60405180910390fd5b6108f48383836114b4565b505050565b6000806000838152602001908152602001600020600101549050919050565b610921826108f9565b6109328161092d611315565b61171b565b61093c83836117b8565b505050565b600061094c83610c51565b821061098d576040517f08c379a000000000000000000000000000000000000000000000000000000000815260040161098490613814565b60405180910390fd5b600860008473ffffffffffffffffffffffffffffffffffffffff1673ffffffffffffffffffffffffffffffffffffffff168152602001908152602001600020600083815260200190815260200160002054905092915050565b6109ee611315565b73ffffffffffffffffffffffffffffffffffffffff168173ffffffffffffffffffffffffffffffffffffffff1614610a5b576040517f08c379a0000000000000000000000000000000000000000000000000000000008152600401610a52906138a6565b60405180910390fd5b610a6582826117ec565b5050565b610a8483838360405180602001604052806000815250610e6f565b505050565b610a9a610a94611315565b826113d6565b610ad9576040517f08c379a0000000000000000000000000000000000000000000000000000000008152600401610ad090613938565b60405180910390fd5b610ae281611820565b50565b6000610aef61088c565b8210610b30576040517f08c379a0000000000000000000000000000000000000000000000000000000008152600401610b27906139ca565b60405180910390fd5b600a8281548110610b4457610b436139ea565b5b90600052602060002001549050919050565b7f241ecf16d79d0f8dbfb92cbc07fe17840425976cf0667f022fe9877caa831b08610b8881610b83611315565b61171b565b8282600c9190610b99929190612c75565b50505050565b6000806004600084815260200190815260200160002060009054906101000a900473ffffffffffffffffffffffffffffffffffffffff169050600073ffffffffffffffffffffffffffffffffffffffff168173ffffffffffffffffffffffffffffffffffffffff161415610c48576040517f08c379a0000000000000000000000000000000000000000000000000000000008152600401610c3f90613a8b565b60405180910390fd5b80915050919050565b60008073ffffffffffffffffffffffffffffffffffffffff168273ffffffffffffffffffffffffffffffffffffffff161415610cc2576040517f08c379a0000000000000000000000000000000000000000000000000000000008152600401610cb990613b1d565b60405180910390fd5b600560008373ffffffffffffffffffffffffffffffffffffffff1673ffffffffffffffffffffffffffffffffffffffff168152602001908152602001600020549050919050565b600e6020528060005260406000206000915090508060000154905081565b6000610d4e826001600086815260200190815260200160002061193d90919063ffffffff16565b905092915050565b600080600084815260200190815260200160002060000160008373ffffffffffffffffffffffffffffffffffffffff1673ffffffffffffffffffffffffffffffffffffffff16815260200190815260200160002060009054906101000a900460ff16905092915050565b606060038054610dcf90613528565b80601f0160208091040260200160405190810160405280929190818152602001828054610dfb90613528565b8015610e485780601f10610e1d57610100808354040283529160200191610e48565b820191906000526020600020905b815481529060010190602001808311610e2b57829003601f168201915b5050505050905090565b6000801b81565b610e6b610e64611315565b8383611957565b5050565b610e80610e7a611315565b836113d6565b610ebf576040517f08c379a0000000000000000000000000000000000000000000000000000000008152600401610eb690613782565b60405180910390fd5b610ecb84848484611ac4565b50505050565b6060610edc826112a9565b610f1b576040517f08c379a0000000000000000000000000000000000000000000000000000000008152600401610f1290613baf565b60405180910390fd5b6000610f25611b20565b90506000815111610f455760405180602001604052806000815250610f70565b80610f4f84611bb2565b604051602001610f60929190613c0b565b6040516020818303038152906040525b915050919050565b6000610f9560016000848152602001908152602001600020611d13565b9050919050565b7f9f2df0fed2c77648de5860a4cc508cd0818c85b8b8a1ab4ceeef8d981c8956a681565b610fc9826108f9565b610fda81610fd5611315565b61171b565b610fe483836117ec565b505050565b6000600760008473ffffffffffffffffffffffffffffffffffffffff1673ffffffffffffffffffffffffffffffffffffffff16815260200190815260200160002060008373ffffffffffffffffffffffffffffffffffffffff1673ffffffffffffffffffffffffffffffffffffffff16815260200190815260200160002060009054906101000a900460ff16905092915050565b7f241ecf16d79d0f8dbfb92cbc07fe17840425976cf0667f022fe9877caa831b0881565b60007f9f2df0fed2c77648de5860a4cc508cd0818c85b8b8a1ab4ceeef8d981c8956a66110d5816110d0611315565b61171b565b6110df600d611d28565b6110e9600d611d3e565b915082600e6000848152602001908152602001600020818161110b9190613d12565b9050506111188483611d4c565b5092915050565b6111298282610d56565b6111fb57600160008084815260200190815260200160002060000160008373ffffffffffffffffffffffffffffffffffffffff1673ffffffffffffffffffffffffffffffffffffffff16815260200190815260200160002060006101000a81548160ff0219169083151502179055506111a0611315565b73ffffffffffffffffffffffffffffffffffffffff168173ffffffffffffffffffffffffffffffffffffffff16837f2f8788117e7eff1d82e926ec794901d17c78024a50270940304540a733656f0d60405160405180910390a45b5050565b6000611227836000018373ffffffffffffffffffffffffffffffffffffffff1660001b611f26565b905092915050565b60007f780e9d63000000000000000000000000000000000000000000000000000000007bffffffffffffffffffffffffffffffffffffffffffffffffffffffff1916827bffffffffffffffffffffffffffffffffffffffffffffffffffffffff191614806112a257506112a182611f96565b5b9050919050565b60008073ffffffffffffffffffffffffffffffffffffffff166004600084815260200190815260200160002060009054906101000a900473ffffffffffffffffffffffffffffffffffffffff1673ffffffffffffffffffffffffffffffffffffffff1614159050919050565b600033905090565b816006600083815260200190815260200160002060006101000a81548173ffffffffffffffffffffffffffffffffffffffff021916908373ffffffffffffffffffffffffffffffffffffffff160217905550808273ffffffffffffffffffffffffffffffffffffffff1661139083610b9f565b73ffffffffffffffffffffffffffffffffffffffff167f8c5be1e5ebec7d5bd14f71427d1e84f3dd0314c0f7b2291e5b200ac8c7c3b92560405160405180910390a45050565b60006113e1826112a9565b611420576040517f08c379a000000000000000000000000000000000000000000000000000000000815260040161141790613d92565b60405180910390fd5b600061142b83610b9f565b90508073ffffffffffffffffffffffffffffffffffffffff168473ffffffffffffffffffffffffffffffffffffffff16148061149a57508373ffffffffffffffffffffffffffffffffffffffff16611482846106ef565b73ffffffffffffffffffffffffffffffffffffffff16145b806114ab57506114aa8185610fe9565b5b91505092915050565b8273ffffffffffffffffffffffffffffffffffffffff166114d482610b9f565b73ffffffffffffffffffffffffffffffffffffffff161461152a576040517f08c379a000000000000000000000000000000000000000000000000000000000815260040161152190613e24565b60405180910390fd5b600073ffffffffffffffffffffffffffffffffffffffff168273ffffffffffffffffffffffffffffffffffffffff16141561159a576040517f08c379a000000000000000000000000000000000000000000000000000000000815260040161159190613eb6565b60405180910390fd5b6115a5838383612078565b6115b060008261131d565b6001600560008573ffffffffffffffffffffffffffffffffffffffff1673ffffffffffffffffffffffffffffffffffffffff16815260200190815260200160002060008282546116009190613f05565b925050819055506001600560008473ffffffffffffffffffffffffffffffffffffffff1673ffffffffffffffffffffffffffffffffffffffff16815260200190815260200160002060008282546116579190613f39565b92505081905550816004600083815260200190815260200160002060006101000a81548173ffffffffffffffffffffffffffffffffffffffff021916908373ffffffffffffffffffffffffffffffffffffffff160217905550808273ffffffffffffffffffffffffffffffffffffffff168473ffffffffffffffffffffffffffffffffffffffff167fddf252ad1be2c89b69c2b068fc378daa952ba7f163c4a11628f55a4df523b3ef60405160405180910390a4611716838383612088565b505050565b6117258282610d56565b6117b45761174a8173ffffffffffffffffffffffffffffffffffffffff16601461208d565b6117588360001c602061208d565b604051602001611769929190614027565b6040516020818303038152906040526040517f08c379a00000000000000000000000000000000000000000000000000000000081526004016117ab9190612e80565b60405180910390fd5b5050565b6117c2828261111f565b6117e781600160008581526020019081526020016000206111ff90919063ffffffff16565b505050565b6117f682826122c9565b61181b81600160008581526020019081526020016000206123aa90919063ffffffff16565b505050565b600061182b82610b9f565b905061183981600084612078565b61184460008361131d565b6001600560008373ffffffffffffffffffffffffffffffffffffffff1673ffffffffffffffffffffffffffffffffffffffff16815260200190815260200160002060008282546118949190613f05565b925050819055506004600083815260200190815260200160002060006101000a81549073ffffffffffffffffffffffffffffffffffffffff021916905581600073ffffffffffffffffffffffffffffffffffffffff168273ffffffffffffffffffffffffffffffffffffffff167fddf252ad1be2c89b69c2b068fc378daa952ba7f163c4a11628f55a4df523b3ef60405160405180910390a461193981600084612088565b5050565b600061194c83600001836123da565b60001c905092915050565b8173ffffffffffffffffffffffffffffffffffffffff168373ffffffffffffffffffffffffffffffffffffffff1614156119c6576040517f08c379a00000000000000000000000000000000000000000000000000000000081526004016119bd906140ad565b60405180910390fd5b80600760008573ffffffffffffffffffffffffffffffffffffffff1673ffffffffffffffffffffffffffffffffffffffff16815260200190815260200160002060008473ffffffffffffffffffffffffffffffffffffffff1673ffffffffffffffffffffffffffffffffffffffff16815260200190815260200160002060006101000a81548160ff0219169083151502179055508173ffffffffffffffffffffffffffffffffffffffff168373ffffffffffffffffffffffffffffffffffffffff167f17307eab39ab6107e8899845ad3d59bd9653f200f220920489ca2b5937696c3183604051611ab79190612dcc565b60405180910390a3505050565b611acf8484846114b4565b611adb84848484612405565b611b1a576040517f08c379a0000000000000000000000000000000000000000000000000000000008152600401611b119061413f565b60405180910390fd5b50505050565b6060600c8054611b2f90613528565b80601f0160208091040260200160405190810160405280929190818152602001828054611b5b90613528565b8015611ba85780601f10611b7d57610100808354040283529160200191611ba8565b820191906000526020600020905b815481529060010190602001808311611b8b57829003601f168201915b5050505050905090565b60606000821415611bfa576040518060400160405280600181526020017f30000000000000000000000000000000000000000000000000000000000000008152509050611d0e565b600082905060005b60008214611c2c578080611c159061415f565b915050600a82611c2591906141d7565b9150611c02565b60008167ffffffffffffffff811115611c4857611c476132a7565b5b6040519080825280601f01601f191660200182016040528015611c7a5781602001600182028036833780820191505090505b5090505b60008514611d0757600182611c939190613f05565b9150600a85611ca29190614208565b6030611cae9190613f39565b60f81b818381518110611cc457611cc36139ea565b5b60200101907effffffffffffffffffffffffffffffffffffffffffffffffffffffffffffff1916908160001a905350600a85611d0091906141d7565b9450611c7e565b8093505050505b919050565b6000611d218260000161258d565b9050919050565b6001816000016000828254019250508190555050565b600081600001549050919050565b600073ffffffffffffffffffffffffffffffffffffffff168273ffffffffffffffffffffffffffffffffffffffff161415611dbc576040517f08c379a0000000000000000000000000000000000000000000000000000000008152600401611db390614285565b60405180910390fd5b611dc5816112a9565b15611e05576040517f08c379a0000000000000000000000000000000000000000000000000000000008152600401611dfc906142f1565b60405180910390fd5b611e1160008383612078565b6001600560008473ffffffffffffffffffffffffffffffffffffffff1673ffffffffffffffffffffffffffffffffffffffff1681526020019081526020016000206000828254611e619190613f39565b92505081905550816004600083815260200190815260200160002060006101000a81548173ffffffffffffffffffffffffffffffffffffffff021916908373ffffffffffffffffffffffffffffffffffffffff160217905550808273ffffffffffffffffffffffffffffffffffffffff16600073ffffffffffffffffffffffffffffffffffffffff167fddf252ad1be2c89b69c2b068fc378daa952ba7f163c4a11628f55a4df523b3ef60405160405180910390a4611f2260008383612088565b5050565b6000611f32838361259e565b611f8b578260000182908060018154018082558091505060019003906000526020600020016000909190919091505582600001805490508360010160008481526020019081526020016000208190555060019050611f90565b600090505b92915050565b60007f80ac58cd000000000000000000000000000000000000000000000000000000007bffffffffffffffffffffffffffffffffffffffffffffffffffffffff1916827bffffffffffffffffffffffffffffffffffffffffffffffffffffffff1916148061206157507f5b5e139f000000000000000000000000000000000000000000000000000000007bffffffffffffffffffffffffffffffffffffffffffffffffffffffff1916827bffffffffffffffffffffffffffffffffffffffffffffffffffffffff1916145b806120715750612070826125c1565b5b9050919050565b61208383838361263b565b505050565b505050565b6060600060028360026120a09190614311565b6120aa9190613f39565b67ffffffffffffffff8111156120c3576120c26132a7565b5b6040519080825280601f01601f1916602001820160405280156120f55781602001600182028036833780820191505090505b5090507f30000000000000000000000000000000000000000000000000000000000000008160008151811061212d5761212c6139ea565b5b60200101907effffffffffffffffffffffffffffffffffffffffffffffffffffffffffffff1916908160001a9053507f780000000000000000000000000000000000000000000000000000000000000081600181518110612191576121906139ea565b5b60200101907effffffffffffffffffffffffffffffffffffffffffffffffffffffffffffff1916908160001a905350600060018460026121d19190614311565b6121db9190613f39565b90505b600181111561227b577f3031323334353637383961626364656600000000000000000000000000000000600f86166010811061221d5761221c6139ea565b5b1a60f81b828281518110612234576122336139ea565b5b60200101907effffffffffffffffffffffffffffffffffffffffffffffffffffffffffffff1916908160001a905350600485901c9450806122749061436b565b90506121de565b50600084146122bf576040517f08c379a00000000000000000000000000000000000000000000000000000000081526004016122b6906143e1565b60405180910390fd5b8091505092915050565b6122d38282610d56565b156123a657600080600084815260200190815260200160002060000160008373ffffffffffffffffffffffffffffffffffffffff1673ffffffffffffffffffffffffffffffffffffffff16815260200190815260200160002060006101000a81548160ff02191690831515021790555061234b611315565b73ffffffffffffffffffffffffffffffffffffffff168173ffffffffffffffffffffffffffffffffffffffff16837ff6391f5c32d9c69d2a47ea670b442974b53935d1edc7fd64eb21e047a839171b60405160405180910390a45b5050565b60006123d2836000018373ffffffffffffffffffffffffffffffffffffffff1660001b61274f565b905092915050565b60008260000182815481106123f2576123f16139ea565b5b9060005260206000200154905092915050565b60006124268473ffffffffffffffffffffffffffffffffffffffff16612863565b15612580578373ffffffffffffffffffffffffffffffffffffffff1663150b7a0261244f611315565b8786866040518563ffffffff1660e01b81526004016124719493929190614456565b6020604051808303816000875af19250505080156124ad57506040513d601f19601f820116820180604052508101906124aa91906144b7565b60015b612530573d80600081146124dd576040519150601f19603f3d011682016040523d82523d6000602084013e6124e2565b606091505b50600081511415612528576040517f08c379a000000000000000000000000000000000000000000000000000000000815260040161251f9061413f565b60405180910390fd5b805181602001fd5b63150b7a0260e01b7bffffffffffffffffffffffffffffffffffffffffffffffffffffffff1916817bffffffffffffffffffffffffffffffffffffffffffffffffffffffff191614915050612585565b600190505b949350505050565b600081600001805490509050919050565b600080836001016000848152602001908152602001600020541415905092915050565b60007f5a05180f000000000000000000000000000000000000000000000000000000007bffffffffffffffffffffffffffffffffffffffffffffffffffffffff1916827bffffffffffffffffffffffffffffffffffffffffffffffffffffffff19161480612634575061263382612886565b5b9050919050565b612646838383612900565b600073ffffffffffffffffffffffffffffffffffffffff168373ffffffffffffffffffffffffffffffffffffffff1614156126895761268481612905565b6126c8565b8173ffffffffffffffffffffffffffffffffffffffff168373ffffffffffffffffffffffffffffffffffffffff16146126c7576126c6838261294e565b5b5b600073ffffffffffffffffffffffffffffffffffffffff168273ffffffffffffffffffffffffffffffffffffffff16141561270b5761270681612abb565b61274a565b8273ffffffffffffffffffffffffffffffffffffffff168273ffffffffffffffffffffffffffffffffffffffff1614612749576127488282612b8c565b5b5b505050565b600080836001016000848152602001908152602001600020549050600081146128575760006001826127819190613f05565b90506000600186600001805490506127999190613f05565b90508181146128085760008660000182815481106127ba576127b96139ea565b5b90600052602060002001549050808760000184815481106127de576127dd6139ea565b5b90600052602060002001819055508387600101600083815260200190815260200160002081905550505b8560000180548061281c5761281b6144e4565b5b60019003818190600052602060002001600090559055856001016000868152602001908152602001600020600090556001935050505061285d565b60009150505b92915050565b6000808273ffffffffffffffffffffffffffffffffffffffff163b119050919050565b60007f7965db0b000000000000000000000000000000000000000000000000000000007bffffffffffffffffffffffffffffffffffffffffffffffffffffffff1916827bffffffffffffffffffffffffffffffffffffffffffffffffffffffff191614806128f957506128f882612c0b565b5b9050919050565b505050565b600a80549050600b600083815260200190815260200160002081905550600a81908060018154018082558091505060019003906000526020600020016000909190919091505550565b6000600161295b84610c51565b6129659190613f05565b9050600060096000848152602001908152602001600020549050818114612a4a576000600860008673ffffffffffffffffffffffffffffffffffffffff1673ffffffffffffffffffffffffffffffffffffffff168152602001908152602001600020600084815260200190815260200160002054905080600860008773ffffffffffffffffffffffffffffffffffffffff1673ffffffffffffffffffffffffffffffffffffffff168152602001908152602001600020600084815260200190815260200160002081905550816009600083815260200190815260200160002081905550505b6009600084815260200190815260200160002060009055600860008573ffffffffffffffffffffffffffffffffffffffff1673ffffffffffffffffffffffffffffffffffffffff16815260200190815260200160002060008381526020019081526020016000206000905550505050565b60006001600a80549050612acf9190613f05565b90506000600b60008481526020019081526020016000205490506000600a8381548110612aff57612afe6139ea565b5b9060005260206000200154905080600a8381548110612b2157612b206139ea565b5b906000526020600020018190555081600b600083815260200190815260200160002081905550600b600085815260200190815260200160002060009055600a805480612b7057612b6f6144e4565b5b6001900381819060005260206000200160009055905550505050565b6000612b9783610c51565b905081600860008573ffffffffffffffffffffffffffffffffffffffff1673ffffffffffffffffffffffffffffffffffffffff168152602001908152602001600020600083815260200190815260200160002081905550806009600084815260200190815260200160002081905550505050565b60007f01ffc9a7000000000000000000000000000000000000000000000000000000007bffffffffffffffffffffffffffffffffffffffffffffffffffffffff1916827bffffffffffffffffffffffffffffffffffffffffffffffffffffffff1916149050919050565b828054612c8190613528565b90600052602060002090601f016020900481019282612ca35760008555612cea565b82601f10612cbc57803560ff1916838001178555612cea565b82800160010185558215612cea579182015b82811115612ce9578235825591602001919060010190612cce565b5b509050612cf79190612cfb565b5090565b5b80821115612d14576000816000905550600101612cfc565b5090565b6000604051905090565b600080fd5b600080fd5b60007fffffffff0000000000000000000000000000000000000000000000000000000082169050919050565b612d6181612d2c565b8114612d6c57600080fd5b50565b600081359050612d7e81612d58565b92915050565b600060208284031215612d9a57612d99612d22565b5b6000612da884828501612d6f565b91505092915050565b60008115159050919050565b612dc681612db1565b82525050565b6000602082019050612de16000830184612dbd565b92915050565b600081519050919050565b600082825260208201905092915050565b60005b83811015612e21578082015181840152602081019050612e06565b83811115612e30576000848401525b50505050565b6000601f19601f8301169050919050565b6000612e5282612de7565b612e5c8185612df2565b9350612e6c818560208601612e03565b612e7581612e36565b840191505092915050565b60006020820190508181036000830152612e9a8184612e47565b905092915050565b6000819050919050565b612eb581612ea2565b8114612ec057600080fd5b50565b600081359050612ed281612eac565b92915050565b600060208284031215612eee57612eed612d22565b5b6000612efc84828501612ec3565b91505092915050565b600073ffffffffffffffffffffffffffffffffffffffff82169050919050565b6000612f3082612f05565b9050919050565b612f4081612f25565b82525050565b6000602082019050612f5b6000830184612f37565b92915050565b612f6a81612f25565b8114612f7557600080fd5b50565b600081359050612f8781612f61565b92915050565b60008060408385031215612fa457612fa3612d22565b5b6000612fb285828601612f78565b9250506020612fc385828601612ec3565b9150509250929050565b612fd681612ea2565b82525050565b6000602082019050612ff16000830184612fcd565b92915050565b6000806000606084860312156130105761300f612d22565b5b600061301e86828701612f78565b935050602061302f86828701612f78565b925050604061304086828701612ec3565b9150509250925092565b6000819050919050565b61305d8161304a565b811461306857600080fd5b50565b60008135905061307a81613054565b92915050565b60006020828403121561309657613095612d22565b5b60006130a48482850161306b565b91505092915050565b6130b68161304a565b82525050565b60006020820190506130d160008301846130ad565b92915050565b600080604083850312156130ee576130ed612d22565b5b60006130fc8582860161306b565b925050602061310d85828601612f78565b9150509250929050565b600080fd5b600080fd5b600080fd5b60008083601f84011261313c5761313b613117565b5b8235905067ffffffffffffffff8111156131595761315861311c565b5b60208301915083600182028301111561317557613174613121565b5b9250929050565b6000806020838503121561319357613192612d22565b5b600083013567ffffffffffffffff8111156131b1576131b0612d27565b5b6131bd85828601613126565b92509250509250929050565b6000602082840312156131df576131de612d22565b5b60006131ed84828501612f78565b91505092915050565b6000806040838503121561320d5761320c612d22565b5b600061321b8582860161306b565b925050602061322c85828601612ec3565b9150509250929050565b61323f81612db1565b811461324a57600080fd5b50565b60008135905061325c81613236565b92915050565b6000806040838503121561327957613278612d22565b5b600061328785828601612f78565b92505060206132988582860161324d565b9150509250929050565b600080fd5b7f4e487b7100000000000000000000000000000000000000000000000000000000600052604160045260246000fd5b6132df82612e36565b810181811067ffffffffffffffff821117156132fe576132fd6132a7565b5b80604052505050565b6000613311612d18565b905061331d82826132d6565b919050565b600067ffffffffffffffff82111561333d5761333c6132a7565b5b61334682612e36565b9050602081019050919050565b82818337600083830152505050565b600061337561337084613322565b613307565b905082815260208101848484011115613391576133906132a2565b5b61339c848285613353565b509392505050565b600082601f8301126133b9576133b8613117565b5b81356133c9848260208601613362565b91505092915050565b600080600080608085870312156133ec576133eb612d22565b5b60006133fa87828801612f78565b945050602061340b87828801612f78565b935050604061341c87828801612ec3565b925050606085013567ffffffffffffffff81111561343d5761343c612d27565b5b613449878288016133a4565b91505092959194509250565b6000806040838503121561346c5761346b612d22565b5b600061347a85828601612f78565b925050602061348b85828601612f78565b9150509250929050565b600080fd5b6000602082840312156134b0576134af613495565b5b81905092915050565b600080604083850312156134d0576134cf612d22565b5b60006134de85828601612f78565b92505060206134ef8582860161349a565b9150509250929050565b7f4e487b7100000000000000000000000000000000000000000000000000000000600052602260045260246000fd5b6000600282049050600182168061354057607f821691505b60208210811415613554576135536134f9565b5b50919050565b7f4552433732313a20617070726f76656420717565727920666f72206e6f6e657860008201527f697374656e7420746f6b656e0000000000000000000000000000000000000000602082015250565b60006135b6602c83612df2565b91506135c18261355a565b604082019050919050565b600060208201905081810360008301526135e5816135a9565b9050919050565b7f4552433732313a20617070726f76616c20746f2063757272656e74206f776e6560008201527f7200000000000000000000000000000000000000000000000000000000000000602082015250565b6000613648602183612df2565b9150613653826135ec565b604082019050919050565b600060208201905081810360008301526136778161363b565b9050919050565b7f4552433732313a20617070726f76652063616c6c6572206973206e6f74206f7760008201527f6e6572206e6f7220617070726f76656420666f7220616c6c0000000000000000602082015250565b60006136da603883612df2565b91506136e58261367e565b604082019050919050565b60006020820190508181036000830152613709816136cd565b9050919050565b7f4552433732313a207472616e736665722063616c6c6572206973206e6f74206f60008201527f776e6572206e6f7220617070726f766564000000000000000000000000000000602082015250565b600061376c603183612df2565b915061377782613710565b604082019050919050565b6000602082019050818103600083015261379b8161375f565b9050919050565b7f455243373231456e756d657261626c653a206f776e657220696e646578206f7560008201527f74206f6620626f756e6473000000000000000000000000000000000000000000602082015250565b60006137fe602b83612df2565b9150613809826137a2565b604082019050919050565b6000602082019050818103600083015261382d816137f1565b9050919050565b7f416363657373436f6e74726f6c3a2063616e206f6e6c792072656e6f756e636560008201527f20726f6c657320666f722073656c660000000000000000000000000000000000602082015250565b6000613890602f83612df2565b915061389b82613834565b604082019050919050565b600060208201905081810360008301526138bf81613883565b9050919050565b7f4552433732314275726e61626c653a2063616c6c6572206973206e6f74206f7760008201527f6e6572206e6f7220617070726f76656400000000000000000000000000000000602082015250565b6000613922603083612df2565b915061392d826138c6565b604082019050919050565b6000602082019050818103600083015261395181613915565b9050919050565b7f455243373231456e756d657261626c653a20676c6f62616c20696e646578206f60008201527f7574206f6620626f756e64730000000000000000000000000000000000000000602082015250565b60006139b4602c83612df2565b91506139bf82613958565b604082019050919050565b600060208201905081810360008301526139e3816139a7565b9050919050565b7f4e487b7100000000000000000000000000000000000000000000000000000000600052603260045260246000fd5b7f4552433732313a206f776e657220717565727920666f72206e6f6e657869737460008201527f656e7420746f6b656e0000000000000000000000000000000000000000000000602082015250565b6000613a75602983612df2565b9150613a8082613a19565b604082019050919050565b60006020820190508181036000830152613aa481613a68565b9050919050565b7f4552433732313a2062616c616e636520717565727920666f7220746865207a6560008201527f726f206164647265737300000000000000000000000000000000000000000000602082015250565b6000613b07602a83612df2565b9150613b1282613aab565b604082019050919050565b60006020820190508181036000830152613b3681613afa565b9050919050565b7f4552433732314d657461646174613a2055524920717565727920666f72206e6f60008201527f6e6578697374656e7420746f6b656e0000000000000000000000000000000000602082015250565b6000613b99602f83612df2565b9150613ba482613b3d565b604082019050919050565b60006020820190508181036000830152613bc881613b8c565b9050919050565b600081905092915050565b6000613be582612de7565b613bef8185613bcf565b9350613bff818560208601612e03565b80840191505092915050565b6000613c178285613bda565b9150613c238284613bda565b91508190509392505050565b60008135613c3c81612eac565b80915050919050565b60008160001b9050919050565b60007fffffffffffffffffffffffffffffffffffffffffffffffffffffffffffffffff613c7e84613c45565b9350801983169250808416831791505092915050565b6000819050919050565b6000613cb9613cb4613caf84612ea2565b613c94565b612ea2565b9050919050565b6000819050919050565b613cd382613c9e565b613ce6613cdf82613cc0565b8354613c52565b8255505050565b600081016000830180613cff81613c2f565b9050613d0b8184613cca565b5050505050565b613d1c8282613ced565b5050565b7f4552433732313a206f70657261746f7220717565727920666f72206e6f6e657860008201527f697374656e7420746f6b656e0000000000000000000000000000000000000000602082015250565b6000613d7c602c83612df2565b9150613d8782613d20565b604082019050919050565b60006020820190508181036000830152613dab81613d6f565b9050919050565b7f4552433732313a207472616e736665722066726f6d20696e636f72726563742060008201527f6f776e6572000000000000000000000000000000000000000000000000000000602082015250565b6000613e0e602583612df2565b9150613e1982613db2565b604082019050919050565b60006020820190508181036000830152613e3d81613e01565b9050919050565b7f4552433732313a207472616e7366657220746f20746865207a65726f2061646460008201527f7265737300000000000000000000000000000000000000000000000000000000602082015250565b6000613ea0602483612df2565b9150613eab82613e44565b604082019050919050565b60006020820190508181036000830152613ecf81613e93565b9050919050565b7f4e487b7100000000000000000000000000000000000000000000000000000000600052601160045260246000fd5b6000613f1082612ea2565b9150613f1b83612ea2565b925082821015613f2e57613f2d613ed6565b5b828203905092915050565b6000613f4482612ea2565b9150613f4f83612ea2565b9250827fffffffffffffffffffffffffffffffffffffffffffffffffffffffffffffffff03821115613f8457613f83613ed6565b5b828201905092915050565b7f416363657373436f6e74726f6c3a206163636f756e7420000000000000000000600082015250565b6000613fc5601783613bcf565b9150613fd082613f8f565b601782019050919050565b7f206973206d697373696e6720726f6c6520000000000000000000000000000000600082015250565b6000614011601183613bcf565b915061401c82613fdb565b601182019050919050565b600061403282613fb8565b915061403e8285613bda565b915061404982614004565b91506140558284613bda565b91508190509392505050565b7f4552433732313a20617070726f766520746f2063616c6c657200000000000000600082015250565b6000614097601983612df2565b91506140a282614061565b602082019050919050565b600060208201905081810360008301526140c68161408a565b9050919050565b7f4552433732313a207472616e7366657220746f206e6f6e20455243373231526560008201527f63656976657220696d706c656d656e7465720000000000000000000000000000602082015250565b6000614129603283612df2565b9150614134826140cd565b604082019050919050565b600060208201905081810360008301526141588161411c565b9050919050565b600061416a82612ea2565b91507fffffffffffffffffffffffffffffffffffffffffffffffffffffffffffffffff82141561419d5761419c613ed6565b5b600182019050919050565b7f4e487b7100000000000000000000000000000000000000000000000000000000600052601260045260246000fd5b60006141e282612ea2565b91506141ed83612ea2565b9250826141fd576141fc6141a8565b5b828204905092915050565b600061421382612ea2565b915061421e83612ea2565b92508261422e5761422d6141a8565b5b828206905092915050565b7f4552433732313a206d696e7420746f20746865207a65726f2061646472657373600082015250565b600061426f602083612df2565b915061427a82614239565b602082019050919050565b6000602082019050818103600083015261429e81614262565b9050919050565b7f4552433732313a20746f6b656e20616c7265616479206d696e74656400000000600082015250565b60006142db601c83612df2565b91506142e6826142a5565b602082019050919050565b6000602082019050818103600083015261430a816142ce565b9050919050565b600061431c82612ea2565b915061432783612ea2565b9250817fffffffffffffffffffffffffffffffffffffffffffffffffffffffffffffffff04831182151516156143605761435f613ed6565b5b828202905092915050565b600061437682612ea2565b9150600082141561438a57614389613ed6565b5b600182039050919050565b7f537472696e67733a20686578206c656e67746820696e73756666696369656e74600082015250565b60006143cb602083612df2565b91506143d682614395565b602082019050919050565b600060208201905081810360008301526143fa816143be565b9050919050565b600081519050919050565b600082825260208201905092915050565b600061442882614401565b614432818561440c565b9350614442818560208601612e03565b61444b81612e36565b840191505092915050565b600060808201905061446b6000830187612f37565b6144786020830186612f37565b6144856040830185612fcd565b8181036060830152614497818461441d565b905095945050505050565b6000815190506144b181612d58565b92915050565b6000602082840312156144cd576144cc612d22565b5b60006144db848285016144a2565b91505092915050565b7f4e487b7100000000000000000000000000000000000000000000000000000000600052603160045260246000fdfea2646970667358221220b0f2a7c432d302b8e93b35fd15ba7a41ebf99bca90c46b9b9f3d0a4ffaa258ec64736f6c634300080c0033",
  "immutableReferences": {},
  "source": "// SPDX-License-Identifier: MIT\r\npragma solidity ^0.8.8;\r\n\r\nimport \"@openzeppelin/contracts/token/ERC721/extensions/ERC721Enumerable.sol\";\r\nimport \"@openzeppelin/contracts/token/ERC721/extensions/ERC721Burnable.sol\";\r\nimport \"@openzeppelin/contracts/access/AccessControlEnumerable.sol\";\r\nimport \"@openzeppelin/contracts/utils/Counters.sol\";\r\n\r\ncontract MarketingNFT is\r\n    AccessControlEnumerable,\r\n    ERC721Burnable,\r\n    ERC721Enumerable\r\n{\r\n    using Counters for Counters.Counter;\r\n\r\n    string private constant _NAME = \"TODO: name the NFT\";\r\n    string private constant _SYMBOL = \"TODO: give it a symbol\";\r\n\r\n    bytes32 public constant MANAGER_ROLE = keccak256(\"MANAGER_ROLE\");\r\n    bytes32 public constant MINTER_ROLE = keccak256(\"MINTER_ROLE\");\r\n\r\n    struct NFTInfo {\r\n        uint256 categoryId;\r\n    }\r\n\r\n    string private __baseURI;\r\n    Counters.Counter private _idCounter;\r\n    mapping(uint256 => NFTInfo) public infoOf;\r\n\r\n    constructor(\r\n        string memory name,\r\n        string memory symbol,\r\n        string memory baseURI\r\n    ) ERC721(name, symbol) {\r\n        __baseURI = baseURI;\r\n\r\n        _setupRole(DEFAULT_ADMIN_ROLE, msg.sender);\r\n        _setupRole(MANAGER_ROLE, msg.sender);\r\n        _setupRole(MINTER_ROLE, msg.sender);\r\n    }\r\n\r\n    function _baseURI() internal view override returns (string memory) {\r\n        return __baseURI;\r\n    }\r\n\r\n    function setBaseURI(string calldata value) external onlyRole(MANAGER_ROLE) {\r\n        __baseURI = value;\r\n    }\r\n\r\n    function supportsInterface(bytes4 interfaceId) public view\r\n        override(AccessControlEnumerable, ERC721, ERC721Enumerable)\r\n        returns (bool)\r\n    {\r\n        return super.supportsInterface(interfaceId);\r\n    }\r\n\r\n    function _beforeTokenTransfer(\r\n        address from,\r\n        address to,\r\n        uint256 tokenId\r\n    ) internal override(ERC721, ERC721Enumerable) virtual {\r\n        super._beforeTokenTransfer(from, to, tokenId);\r\n    }\r\n\r\n    function mint(address to, NFTInfo calldata info) external onlyRole(MINTER_ROLE) returns (uint256 nftId) {\r\n        _idCounter.increment();\r\n        nftId = _idCounter.current();\r\n        infoOf[nftId] = info;\r\n\r\n        _mint(to, nftId);\r\n    }\r\n}",
  "sourcePath": "D:\\Profile\\Documents\\ragnarok\\gamefi_proj_wan\\dragonaire-marketing-contracts\\contracts\\MarketingNFT.sol",
  "compiler": {
    "name": "solc",
    "version": "0.8.12+commit.f00d7308.Emscripten.clang"
  },
  "schemaVersion": "3.4.6",
  "updatedAt": "2022-03-30T02:42:37.217Z",
  "networkType": "ethereum",
  "devdoc": {
    "kind": "dev",
    "methods": {
      "approve(address,uint256)": {
        "details": "See {IERC721-approve}."
      },
      "balanceOf(address)": {
        "details": "See {IERC721-balanceOf}."
      },
      "burn(uint256)": {
        "details": "Burns `tokenId`. See {ERC721-_burn}. Requirements: - The caller must own `tokenId` or be an approved operator."
      },
      "getApproved(uint256)": {
        "details": "See {IERC721-getApproved}."
      },
      "getRoleAdmin(bytes32)": {
        "details": "Returns the admin role that controls `role`. See {grantRole} and {revokeRole}. To change a role's admin, use {_setRoleAdmin}."
      },
      "getRoleMember(bytes32,uint256)": {
        "details": "Returns one of the accounts that have `role`. `index` must be a value between 0 and {getRoleMemberCount}, non-inclusive. Role bearers are not sorted in any particular way, and their ordering may change at any point. WARNING: When using {getRoleMember} and {getRoleMemberCount}, make sure you perform all queries on the same block. See the following https://forum.openzeppelin.com/t/iterating-over-elements-on-enumerableset-in-openzeppelin-contracts/2296[forum post] for more information."
      },
      "getRoleMemberCount(bytes32)": {
        "details": "Returns the number of accounts that have `role`. Can be used together with {getRoleMember} to enumerate all bearers of a role."
      },
      "grantRole(bytes32,address)": {
        "details": "Grants `role` to `account`. If `account` had not been already granted `role`, emits a {RoleGranted} event. Requirements: - the caller must have ``role``'s admin role."
      },
      "hasRole(bytes32,address)": {
        "details": "Returns `true` if `account` has been granted `role`."
      },
      "isApprovedForAll(address,address)": {
        "details": "See {IERC721-isApprovedForAll}."
      },
      "name()": {
        "details": "See {IERC721Metadata-name}."
      },
      "ownerOf(uint256)": {
        "details": "See {IERC721-ownerOf}."
      },
      "renounceRole(bytes32,address)": {
        "details": "Revokes `role` from the calling account. Roles are often managed via {grantRole} and {revokeRole}: this function's purpose is to provide a mechanism for accounts to lose their privileges if they are compromised (such as when a trusted device is misplaced). If the calling account had been revoked `role`, emits a {RoleRevoked} event. Requirements: - the caller must be `account`."
      },
      "revokeRole(bytes32,address)": {
        "details": "Revokes `role` from `account`. If `account` had been granted `role`, emits a {RoleRevoked} event. Requirements: - the caller must have ``role``'s admin role."
      },
      "safeTransferFrom(address,address,uint256)": {
        "details": "See {IERC721-safeTransferFrom}."
      },
      "safeTransferFrom(address,address,uint256,bytes)": {
        "details": "See {IERC721-safeTransferFrom}."
      },
      "setApprovalForAll(address,bool)": {
        "details": "See {IERC721-setApprovalForAll}."
      },
      "symbol()": {
        "details": "See {IERC721Metadata-symbol}."
      },
      "tokenByIndex(uint256)": {
        "details": "See {IERC721Enumerable-tokenByIndex}."
      },
      "tokenOfOwnerByIndex(address,uint256)": {
        "details": "See {IERC721Enumerable-tokenOfOwnerByIndex}."
      },
      "tokenURI(uint256)": {
        "details": "See {IERC721Metadata-tokenURI}."
      },
      "totalSupply()": {
        "details": "See {IERC721Enumerable-totalSupply}."
      },
      "transferFrom(address,address,uint256)": {
        "details": "See {IERC721-transferFrom}."
      }
    },
    "version": 1
  },
  "userdoc": {
    "kind": "user",
    "methods": {},
    "version": 1
  }
}